{
  "_format": "hh-sol-artifact-1",
  "contractName": "TokenMaster",
  "sourceName": "contracts/TokenMaster.sol",
  "abi": [
    {
      "inputs": [
        {
          "internalType": "string",
          "name": "_name",
          "type": "string"
        },
        {
          "internalType": "string",
          "name": "_symbol",
          "type": "string"
        }
      ],
      "stateMutability": "nonpayable",
      "type": "constructor"
    },
    {
      "anonymous": false,
      "inputs": [
        {
          "indexed": true,
          "internalType": "address",
          "name": "owner",
          "type": "address"
        },
        {
          "indexed": true,
          "internalType": "address",
          "name": "approved",
          "type": "address"
        },
        {
          "indexed": true,
          "internalType": "uint256",
          "name": "tokenId",
          "type": "uint256"
        }
      ],
      "name": "Approval",
      "type": "event"
    },
    {
      "anonymous": false,
      "inputs": [
        {
          "indexed": true,
          "internalType": "address",
          "name": "owner",
          "type": "address"
        },
        {
          "indexed": true,
          "internalType": "address",
          "name": "operator",
          "type": "address"
        },
        {
          "indexed": false,
          "internalType": "bool",
          "name": "approved",
          "type": "bool"
        }
      ],
      "name": "ApprovalForAll",
      "type": "event"
    },
    {
      "anonymous": false,
      "inputs": [
        {
          "indexed": true,
          "internalType": "address",
          "name": "from",
          "type": "address"
        },
        {
          "indexed": true,
          "internalType": "address",
          "name": "to",
          "type": "address"
        },
        {
          "indexed": true,
          "internalType": "uint256",
          "name": "tokenId",
          "type": "uint256"
        }
      ],
      "name": "Transfer",
      "type": "event"
    },
    {
      "inputs": [
        {
          "internalType": "address",
          "name": "to",
          "type": "address"
        },
        {
          "internalType": "uint256",
          "name": "tokenId",
          "type": "uint256"
        }
      ],
      "name": "approve",
      "outputs": [],
      "stateMutability": "nonpayable",
      "type": "function"
    },
    {
      "inputs": [
        {
          "internalType": "address",
          "name": "owner",
          "type": "address"
        }
      ],
      "name": "balanceOf",
      "outputs": [
        {
          "internalType": "uint256",
          "name": "",
          "type": "uint256"
        }
      ],
      "stateMutability": "view",
      "type": "function"
    },
    {
      "inputs": [
        {
          "internalType": "uint256",
          "name": "_id",
          "type": "uint256"
        }
      ],
      "name": "buyTicket",
      "outputs": [],
      "stateMutability": "payable",
      "type": "function"
    },
    {
      "inputs": [
        {
          "internalType": "string",
          "name": "_name",
          "type": "string"
        },
        {
          "internalType": "uint256",
          "name": "_cost",
          "type": "uint256"
        },
        {
          "internalType": "uint256",
          "name": "_maxTickets",
          "type": "uint256"
        },
        {
          "internalType": "string",
          "name": "_date",
          "type": "string"
        },
        {
          "internalType": "string",
          "name": "_time",
          "type": "string"
        },
        {
          "internalType": "string",
          "name": "_location",
          "type": "string"
        }
      ],
      "name": "createEvent",
      "outputs": [],
      "stateMutability": "nonpayable",
      "type": "function"
    },
    {
      "inputs": [
        {
          "internalType": "address",
          "name": "_myAddress",
          "type": "address"
        },
        {
          "internalType": "uint256",
          "name": "_myTicketId",
          "type": "uint256"
        },
        {
          "internalType": "address",
          "name": "_theirAddress",
          "type": "address"
        },
        {
          "internalType": "uint256",
          "name": "_theirTicketId",
          "type": "uint256"
        }
      ],
      "name": "exchangeTickets",
      "outputs": [],
      "stateMutability": "nonpayable",
      "type": "function"
    },
    {
      "inputs": [
        {
          "internalType": "uint256",
          "name": "tokenId",
          "type": "uint256"
        }
      ],
      "name": "getApproved",
      "outputs": [
        {
          "internalType": "address",
          "name": "",
          "type": "address"
        }
      ],
      "stateMutability": "view",
      "type": "function"
    },
    {
      "inputs": [
        {
          "internalType": "uint256",
          "name": "_id",
          "type": "uint256"
        }
      ],
      "name": "getEventDetails",
      "outputs": [
        {
          "components": [
            {
              "internalType": "uint256",
              "name": "id",
              "type": "uint256"
            },
            {
              "internalType": "string",
              "name": "name",
              "type": "string"
            },
            {
              "internalType": "uint256",
              "name": "cost",
              "type": "uint256"
            },
            {
              "internalType": "uint256",
              "name": "tickets",
              "type": "uint256"
            },
            {
              "internalType": "uint256",
              "name": "maxTickets",
              "type": "uint256"
            },
            {
              "internalType": "string",
              "name": "date",
              "type": "string"
            },
            {
              "internalType": "string",
              "name": "time",
              "type": "string"
            },
            {
              "internalType": "string",
              "name": "location",
              "type": "string"
            }
          ],
          "internalType": "struct TokenMaster.Occasion",
          "name": "",
          "type": "tuple"
        }
      ],
      "stateMutability": "view",
      "type": "function"
    },
    {
      "inputs": [
        {
          "internalType": "address",
          "name": "userAddress",
          "type": "address"
        }
      ],
      "name": "getTicketsByUser",
      "outputs": [
        {
          "internalType": "uint256[]",
          "name": "",
          "type": "uint256[]"
        }
      ],
      "stateMutability": "view",
      "type": "function"
    },
    {
      "inputs": [
        {
          "internalType": "address",
          "name": "owner",
          "type": "address"
        },
        {
          "internalType": "address",
          "name": "operator",
          "type": "address"
        }
      ],
      "name": "isApprovedForAll",
      "outputs": [
        {
          "internalType": "bool",
          "name": "",
          "type": "bool"
        }
      ],
      "stateMutability": "view",
      "type": "function"
    },
    {
      "inputs": [],
      "name": "name",
      "outputs": [
        {
          "internalType": "string",
          "name": "",
          "type": "string"
        }
      ],
      "stateMutability": "view",
      "type": "function"
    },
    {
      "inputs": [],
      "name": "owner",
      "outputs": [
        {
          "internalType": "address",
          "name": "",
          "type": "address"
        }
      ],
      "stateMutability": "view",
      "type": "function"
    },
    {
      "inputs": [
        {
          "internalType": "uint256",
          "name": "tokenId",
          "type": "uint256"
        }
      ],
      "name": "ownerOf",
      "outputs": [
        {
          "internalType": "address",
          "name": "",
          "type": "address"
        }
      ],
      "stateMutability": "view",
      "type": "function"
    },
    {
      "inputs": [
        {
          "internalType": "address",
          "name": "from",
          "type": "address"
        },
        {
          "internalType": "address",
          "name": "to",
          "type": "address"
        },
        {
          "internalType": "uint256",
          "name": "tokenId",
          "type": "uint256"
        }
      ],
      "name": "safeTransferFrom",
      "outputs": [],
      "stateMutability": "nonpayable",
      "type": "function"
    },
    {
      "inputs": [
        {
          "internalType": "address",
          "name": "from",
          "type": "address"
        },
        {
          "internalType": "address",
          "name": "to",
          "type": "address"
        },
        {
          "internalType": "uint256",
          "name": "tokenId",
          "type": "uint256"
        },
        {
          "internalType": "bytes",
          "name": "data",
          "type": "bytes"
        }
      ],
      "name": "safeTransferFrom",
      "outputs": [],
      "stateMutability": "nonpayable",
      "type": "function"
    },
    {
      "inputs": [
        {
          "internalType": "address",
          "name": "operator",
          "type": "address"
        },
        {
          "internalType": "bool",
          "name": "approved",
          "type": "bool"
        }
      ],
      "name": "setApprovalForAll",
      "outputs": [],
      "stateMutability": "nonpayable",
      "type": "function"
    },
    {
      "inputs": [
        {
          "internalType": "bytes4",
          "name": "interfaceId",
          "type": "bytes4"
        }
      ],
      "name": "supportsInterface",
      "outputs": [
        {
          "internalType": "bool",
          "name": "",
          "type": "bool"
        }
      ],
      "stateMutability": "view",
      "type": "function"
    },
    {
      "inputs": [],
      "name": "symbol",
      "outputs": [
        {
          "internalType": "string",
          "name": "",
          "type": "string"
        }
      ],
      "stateMutability": "view",
      "type": "function"
    },
    {
      "inputs": [
        {
          "internalType": "uint256",
          "name": "tokenId",
          "type": "uint256"
        }
      ],
      "name": "tokenURI",
      "outputs": [
        {
          "internalType": "string",
          "name": "",
          "type": "string"
        }
      ],
      "stateMutability": "view",
      "type": "function"
    },
    {
      "inputs": [],
      "name": "totalOccasions",
      "outputs": [
        {
          "internalType": "uint256",
          "name": "",
          "type": "uint256"
        }
      ],
      "stateMutability": "view",
      "type": "function"
    },
    {
      "inputs": [],
      "name": "totalSupply",
      "outputs": [
        {
          "internalType": "uint256",
          "name": "",
          "type": "uint256"
        }
      ],
      "stateMutability": "view",
      "type": "function"
    },
    {
      "inputs": [
        {
          "internalType": "address",
          "name": "from",
          "type": "address"
        },
        {
          "internalType": "address",
          "name": "to",
          "type": "address"
        },
        {
          "internalType": "uint256",
          "name": "tokenId",
          "type": "uint256"
        }
      ],
      "name": "transferFrom",
      "outputs": [],
      "stateMutability": "nonpayable",
      "type": "function"
    },
    {
      "inputs": [
        {
          "internalType": "address",
          "name": "",
          "type": "address"
        },
        {
          "internalType": "uint256",
          "name": "",
          "type": "uint256"
        }
      ],
      "name": "userTickets",
      "outputs": [
        {
          "internalType": "uint256",
          "name": "",
          "type": "uint256"
        }
      ],
      "stateMutability": "view",
      "type": "function"
    },
    {
      "inputs": [],
      "name": "withdraw",
      "outputs": [],
      "stateMutability": "nonpayable",
      "type": "function"
    }
  ],
  "bytecode": "0x60806040523480156200001157600080fd5b50604051620044f3380380620044f383398181016040528101906200003791906200023b565b818181600090816200004a91906200050b565b5080600190816200005c91906200050b565b50505033600860006101000a81548173ffffffffffffffffffffffffffffffffffffffff021916908373ffffffffffffffffffffffffffffffffffffffff1602179055505050620005f2565b6000604051905090565b600080fd5b600080fd5b600080fd5b600080fd5b6000601f19601f8301169050919050565b7f4e487b7100000000000000000000000000000000000000000000000000000000600052604160045260246000fd5b6200011182620000c6565b810181811067ffffffffffffffff82111715620001335762000132620000d7565b5b80604052505050565b600062000148620000a8565b905062000156828262000106565b919050565b600067ffffffffffffffff821115620001795762000178620000d7565b5b6200018482620000c6565b9050602081019050919050565b60005b83811015620001b157808201518184015260208101905062000194565b60008484015250505050565b6000620001d4620001ce846200015b565b6200013c565b905082815260208101848484011115620001f357620001f2620000c1565b5b6200020084828562000191565b509392505050565b600082601f83011262000220576200021f620000bc565b5b815162000232848260208601620001bd565b91505092915050565b60008060408385031215620002555762000254620000b2565b5b600083015167ffffffffffffffff811115620002765762000275620000b7565b5b620002848582860162000208565b925050602083015167ffffffffffffffff811115620002a857620002a7620000b7565b5b620002b68582860162000208565b9150509250929050565b600081519050919050565b7f4e487b7100000000000000000000000000000000000000000000000000000000600052602260045260246000fd5b600060028204905060018216806200031357607f821691505b602082108103620003295762000328620002cb565b5b50919050565b60008190508160005260206000209050919050565b60006020601f8301049050919050565b600082821b905092915050565b600060088302620003937fffffffffffffffffffffffffffffffffffffffffffffffffffffffffffffffff8262000354565b6200039f868362000354565b95508019841693508086168417925050509392505050565b6000819050919050565b6000819050919050565b6000620003ec620003e6620003e084620003b7565b620003c1565b620003b7565b9050919050565b6000819050919050565b6200040883620003cb565b620004206200041782620003f3565b84845462000361565b825550505050565b600090565b6200043762000428565b62000444818484620003fd565b505050565b5b818110156200046c57620004606000826200042d565b6001810190506200044a565b5050565b601f821115620004bb5762000485816200032f565b620004908462000344565b81016020851015620004a0578190505b620004b8620004af8562000344565b83018262000449565b50505b505050565b600082821c905092915050565b6000620004e060001984600802620004c0565b1980831691505092915050565b6000620004fb8383620004cd565b9150826002028217905092915050565b6200051682620002c0565b67ffffffffffffffff811115620005325762000531620000d7565b5b6200053e8254620002fa565b6200054b82828562000470565b600060209050601f8311600181146200058357600084156200056e578287015190505b6200057a8582620004ed565b865550620005ea565b601f19841662000593866200032f565b60005b82811015620005bd5784890151825560018201915060208501945060208101905062000596565b86831015620005dd5784890151620005d9601f891682620004cd565b8355505b6001600288020188555050505b505050505050565b613ef180620006026000396000f3fe6080604052600436106101405760003560e01c806370a08231116100b6578063c87b56dd1161006f578063c87b56dd14610439578063cf260baf14610476578063d4ec3d2b146104b3578063e5b0b100146104dc578063e985e9c514610519578063ec38d5a01461055657610140565b806370a08231146103295780638da5cb5b14610366578063953865c11461039157806395d89b41146103bc578063a22cb465146103e7578063b88d4fde1461041057610140565b806323b872dd1161010857806323b872dd1461023e57806332d9b272146102675780633ccfd60b1461029057806342842e0e146102a75780636352211e146102d057806367dd74ca1461030d57610140565b806301ffc9a71461014557806306fdde0314610182578063081812fc146101ad578063095ea7b3146101ea57806318160ddd14610213575b600080fd5b34801561015157600080fd5b5061016c60048036038101906101679190612537565b610593565b604051610179919061257f565b60405180910390f35b34801561018e57600080fd5b50610197610675565b6040516101a4919061262a565b60405180910390f35b3480156101b957600080fd5b506101d460048036038101906101cf9190612682565b610707565b6040516101e191906126f0565b60405180910390f35b3480156101f657600080fd5b50610211600480360381019061020c9190612737565b61074d565b005b34801561021f57600080fd5b50610228610864565b6040516102359190612786565b60405180910390f35b34801561024a57600080fd5b50610265600480360381019061026091906127a1565b61086a565b005b34801561027357600080fd5b5061028e60048036038101906102899190612929565b6108ca565b005b34801561029c57600080fd5b506102a5610ad4565b005b3480156102b357600080fd5b506102ce60048036038101906102c991906127a1565b610c78565b005b3480156102dc57600080fd5b506102f760048036038101906102f29190612682565b610c98565b60405161030491906126f0565b60405180910390f35b61032760048036038101906103229190612682565b610d1e565b005b34801561033557600080fd5b50610350600480360381019061034b9190612a26565b610f13565b60405161035d9190612786565b60405180910390f35b34801561037257600080fd5b5061037b610fca565b60405161038891906126f0565b60405180910390f35b34801561039d57600080fd5b506103a6610ff0565b6040516103b39190612786565b60405180910390f35b3480156103c857600080fd5b506103d1610ff6565b6040516103de919061262a565b60405180910390f35b3480156103f357600080fd5b5061040e60048036038101906104099190612a7f565b611088565b005b34801561041c57600080fd5b5061043760048036038101906104329190612b60565b61109e565b005b34801561044557600080fd5b50610460600480360381019061045b9190612682565b611100565b60405161046d919061262a565b60405180910390f35b34801561048257600080fd5b5061049d60048036038101906104989190612737565b611168565b6040516104aa9190612786565b60405180910390f35b3480156104bf57600080fd5b506104da60048036038101906104d59190612be3565b611199565b005b3480156104e857600080fd5b5061050360048036038101906104fe9190612a26565b6112ef565b6040516105109190612d08565b60405180910390f35b34801561052557600080fd5b50610540600480360381019061053b9190612d2a565b611386565b60405161054d919061257f565b60405180910390f35b34801561056257600080fd5b5061057d60048036038101906105789190612682565b61141a565b60405161058a9190612e79565b60405180910390f35b60007f80ac58cd000000000000000000000000000000000000000000000000000000007bffffffffffffffffffffffffffffffffffffffffffffffffffffffff1916827bffffffffffffffffffffffffffffffffffffffffffffffffffffffff1916148061065e57507f5b5e139f000000000000000000000000000000000000000000000000000000007bffffffffffffffffffffffffffffffffffffffffffffffffffffffff1916827bffffffffffffffffffffffffffffffffffffffffffffffffffffffff1916145b8061066e575061066d826116b8565b5b9050919050565b60606000805461068490612eca565b80601f01602080910402602001604051908101604052809291908181526020018280546106b090612eca565b80156106fd5780601f106106d2576101008083540402835291602001916106fd565b820191906000526020600020905b8154815290600101906020018083116106e057829003601f168201915b5050505050905090565b600061071282611722565b6004600083815260200190815260200160002060009054906101000a900473ffffffffffffffffffffffffffffffffffffffff169050919050565b600061075882610c98565b90508073ffffffffffffffffffffffffffffffffffffffff168373ffffffffffffffffffffffffffffffffffffffff16036107c8576040517f08c379a00000000000000000000000000000000000000000000000000000000081526004016107bf90612f6d565b60405180910390fd5b8073ffffffffffffffffffffffffffffffffffffffff166107e761176d565b73ffffffffffffffffffffffffffffffffffffffff16148061081657506108158161081061176d565b611386565b5b610855576040517f08c379a000000000000000000000000000000000000000000000000000000000815260040161084c90612fff565b60405180910390fd5b61085f8383611775565b505050565b600a5481565b61087b61087561176d565b8261182e565b6108ba576040517f08c379a00000000000000000000000000000000000000000000000000000000081526004016108b190613091565b60405180910390fd5b6108c58383836118c3565b505050565b600860009054906101000a900473ffffffffffffffffffffffffffffffffffffffff1673ffffffffffffffffffffffffffffffffffffffff163373ffffffffffffffffffffffffffffffffffffffff161461095a576040517f08c379a000000000000000000000000000000000000000000000000000000000815260040161095190613123565b60405180910390fd5b6000851161099d576040517f08c379a00000000000000000000000000000000000000000000000000000000081526004016109949061318f565b60405180910390fd5b600084116109e0576040517f08c379a00000000000000000000000000000000000000000000000000000000081526004016109d790613221565b60405180910390fd5b600960008154809291906109f390613270565b9190505550604051806101000160405280600954815260200187815260200186815260200185815260200185815260200184815260200183815260200182815250600760006009548152602001908152602001600020600082015181600001556020820151816001019081610a689190613464565b5060408201518160020155606082015181600301556080820151816004015560a0820151816005019081610a9c9190613464565b5060c0820151816006019081610ab29190613464565b5060e0820151816007019081610ac89190613464565b50905050505050505050565b600860009054906101000a900473ffffffffffffffffffffffffffffffffffffffff1673ffffffffffffffffffffffffffffffffffffffff163373ffffffffffffffffffffffffffffffffffffffff1614610b64576040517f08c379a0000000000000000000000000000000000000000000000000000000008152600401610b5b90613123565b60405180910390fd5b60004711610ba7576040517f08c379a0000000000000000000000000000000000000000000000000000000008152600401610b9e90613582565b60405180910390fd5b6000600860009054906101000a900473ffffffffffffffffffffffffffffffffffffffff1673ffffffffffffffffffffffffffffffffffffffff1647604051610bef906135d3565b60006040518083038185875af1925050503d8060008114610c2c576040519150601f19603f3d011682016040523d82523d6000602084013e610c31565b606091505b5050905080610c75576040517f08c379a0000000000000000000000000000000000000000000000000000000008152600401610c6c90613634565b60405180910390fd5b50565b610c938383836040518060200160405280600081525061109e565b505050565b600080610ca483611bbc565b9050600073ffffffffffffffffffffffffffffffffffffffff168173ffffffffffffffffffffffffffffffffffffffff1603610d15576040517f08c379a0000000000000000000000000000000000000000000000000000000008152600401610d0c906136a0565b60405180910390fd5b80915050919050565b60008103610d61576040517f08c379a0000000000000000000000000000000000000000000000000000000008152600401610d589061370c565b60405180910390fd5b600954811115610da6576040517f08c379a0000000000000000000000000000000000000000000000000000000008152600401610d9d9061379e565b60405180910390fd5b6007600082815260200190815260200160002060020154341015610dff576040517f08c379a0000000000000000000000000000000000000000000000000000000008152600401610df690613830565b60405180910390fd5b6000600760008381526020019081526020016000206003015411610e58576040517f08c379a0000000000000000000000000000000000000000000000000000000008152600401610e4f9061389c565b60405180910390fd5b600760008281526020019081526020016000206003016000815480929190610e7f906138bc565b9190505550600a6000815480929190610e9790613270565b9190505550610ea833600a54611bf9565b600660003373ffffffffffffffffffffffffffffffffffffffff1673ffffffffffffffffffffffffffffffffffffffff168152602001908152602001600020600a54908060018154018082558091505060019003906000526020600020016000909190919091505550565b60008073ffffffffffffffffffffffffffffffffffffffff168273ffffffffffffffffffffffffffffffffffffffff1603610f83576040517f08c379a0000000000000000000000000000000000000000000000000000000008152600401610f7a90613957565b60405180910390fd5b600360008373ffffffffffffffffffffffffffffffffffffffff1673ffffffffffffffffffffffffffffffffffffffff168152602001908152602001600020549050919050565b600860009054906101000a900473ffffffffffffffffffffffffffffffffffffffff1681565b60095481565b60606001805461100590612eca565b80601f016020809104026020016040519081016040528092919081815260200182805461103190612eca565b801561107e5780601f106110535761010080835404028352916020019161107e565b820191906000526020600020905b81548152906001019060200180831161106157829003601f168201915b5050505050905090565b61109a61109361176d565b8383611c17565b5050565b6110af6110a961176d565b8361182e565b6110ee576040517f08c379a00000000000000000000000000000000000000000000000000000000081526004016110e590613091565b60405180910390fd5b6110fa84848484611d83565b50505050565b606061110b82611722565b6000611115611ddf565b905060008151116111355760405180602001604052806000815250611160565b8061113f84611df6565b6040516020016111509291906139b3565b6040516020818303038152906040525b915050919050565b6006602052816000526040600020818154811061118457600080fd5b90600052602060002001600091509150505481565b6111a283611ec4565b80156111b357506111b281611ec4565b5b6111f2576040517f08c379a00000000000000000000000000000000000000000000000000000000081526004016111e990613a23565b60405180910390fd5b60006111fd84610c98565b9050600061120a83610c98565b90508573ffffffffffffffffffffffffffffffffffffffff168273ffffffffffffffffffffffffffffffffffffffff1614801561127257508373ffffffffffffffffffffffffffffffffffffffff168173ffffffffffffffffffffffffffffffffffffffff16145b6112b1576040517f08c379a00000000000000000000000000000000000000000000000000000000081526004016112a890613a8f565b60405180910390fd5b6112cc82828760405180602001604052806000815250611d83565b6112e781838560405180602001604052806000815250611d83565b505050505050565b6060600660008373ffffffffffffffffffffffffffffffffffffffff1673ffffffffffffffffffffffffffffffffffffffff16815260200190815260200160002080548060200260200160405190810160405280929190818152602001828054801561137a57602002820191906000526020600020905b815481526020019060010190808311611366575b50505050509050919050565b6000600560008473ffffffffffffffffffffffffffffffffffffffff1673ffffffffffffffffffffffffffffffffffffffff16815260200190815260200160002060008373ffffffffffffffffffffffffffffffffffffffff1673ffffffffffffffffffffffffffffffffffffffff16815260200190815260200160002060009054906101000a900460ff16905092915050565b611422612486565b60076000838152602001908152602001600020604051806101000160405290816000820154815260200160018201805461145b90612eca565b80601f016020809104026020016040519081016040528092919081815260200182805461148790612eca565b80156114d45780601f106114a9576101008083540402835291602001916114d4565b820191906000526020600020905b8154815290600101906020018083116114b757829003601f168201915b5050505050815260200160028201548152602001600382015481526020016004820154815260200160058201805461150b90612eca565b80601f016020809104026020016040519081016040528092919081815260200182805461153790612eca565b80156115845780601f1061155957610100808354040283529160200191611584565b820191906000526020600020905b81548152906001019060200180831161156757829003601f168201915b5050505050815260200160068201805461159d90612eca565b80601f01602080910402602001604051908101604052809291908181526020018280546115c990612eca565b80156116165780601f106115eb57610100808354040283529160200191611616565b820191906000526020600020905b8154815290600101906020018083116115f957829003601f168201915b5050505050815260200160078201805461162f90612eca565b80601f016020809104026020016040519081016040528092919081815260200182805461165b90612eca565b80156116a85780601f1061167d576101008083540402835291602001916116a8565b820191906000526020600020905b81548152906001019060200180831161168b57829003601f168201915b5050505050815250509050919050565b60007f01ffc9a7000000000000000000000000000000000000000000000000000000007bffffffffffffffffffffffffffffffffffffffffffffffffffffffff1916827bffffffffffffffffffffffffffffffffffffffffffffffffffffffff1916149050919050565b61172b81611ec4565b61176a576040517f08c379a0000000000000000000000000000000000000000000000000000000008152600401611761906136a0565b60405180910390fd5b50565b600033905090565b816004600083815260200190815260200160002060006101000a81548173ffffffffffffffffffffffffffffffffffffffff021916908373ffffffffffffffffffffffffffffffffffffffff160217905550808273ffffffffffffffffffffffffffffffffffffffff166117e883610c98565b73ffffffffffffffffffffffffffffffffffffffff167f8c5be1e5ebec7d5bd14f71427d1e84f3dd0314c0f7b2291e5b200ac8c7c3b92560405160405180910390a45050565b60008061183a83610c98565b90508073ffffffffffffffffffffffffffffffffffffffff168473ffffffffffffffffffffffffffffffffffffffff16148061187c575061187b8185611386565b5b806118ba57508373ffffffffffffffffffffffffffffffffffffffff166118a284610707565b73ffffffffffffffffffffffffffffffffffffffff16145b91505092915050565b8273ffffffffffffffffffffffffffffffffffffffff166118e382610c98565b73ffffffffffffffffffffffffffffffffffffffff1614611939576040517f08c379a000000000000000000000000000000000000000000000000000000000815260040161193090613b21565b60405180910390fd5b600073ffffffffffffffffffffffffffffffffffffffff168273ffffffffffffffffffffffffffffffffffffffff16036119a8576040517f08c379a000000000000000000000000000000000000000000000000000000000815260040161199f90613bb3565b60405180910390fd5b6119b58383836001611f05565b8273ffffffffffffffffffffffffffffffffffffffff166119d582610c98565b73ffffffffffffffffffffffffffffffffffffffff1614611a2b576040517f08c379a0000000000000000000000000000000000000000000000000000000008152600401611a2290613b21565b60405180910390fd5b6004600082815260200190815260200160002060006101000a81549073ffffffffffffffffffffffffffffffffffffffff02191690556001600360008573ffffffffffffffffffffffffffffffffffffffff1673ffffffffffffffffffffffffffffffffffffffff168152602001908152602001600020600082825403925050819055506001600360008473ffffffffffffffffffffffffffffffffffffffff1673ffffffffffffffffffffffffffffffffffffffff16815260200190815260200160002060008282540192505081905550816002600083815260200190815260200160002060006101000a81548173ffffffffffffffffffffffffffffffffffffffff021916908373ffffffffffffffffffffffffffffffffffffffff160217905550808273ffffffffffffffffffffffffffffffffffffffff168473ffffffffffffffffffffffffffffffffffffffff167fddf252ad1be2c89b69c2b068fc378daa952ba7f163c4a11628f55a4df523b3ef60405160405180910390a4611bb78383836001611f0b565b505050565b60006002600083815260200190815260200160002060009054906101000a900473ffffffffffffffffffffffffffffffffffffffff169050919050565b611c13828260405180602001604052806000815250611f11565b5050565b8173ffffffffffffffffffffffffffffffffffffffff168373ffffffffffffffffffffffffffffffffffffffff1603611c85576040517f08c379a0000000000000000000000000000000000000000000000000000000008152600401611c7c90613c1f565b60405180910390fd5b80600560008573ffffffffffffffffffffffffffffffffffffffff1673ffffffffffffffffffffffffffffffffffffffff16815260200190815260200160002060008473ffffffffffffffffffffffffffffffffffffffff1673ffffffffffffffffffffffffffffffffffffffff16815260200190815260200160002060006101000a81548160ff0219169083151502179055508173ffffffffffffffffffffffffffffffffffffffff168373ffffffffffffffffffffffffffffffffffffffff167f17307eab39ab6107e8899845ad3d59bd9653f200f220920489ca2b5937696c3183604051611d76919061257f565b60405180910390a3505050565b611d8e8484846118c3565b611d9a84848484611f6c565b611dd9576040517f08c379a0000000000000000000000000000000000000000000000000000000008152600401611dd090613cb1565b60405180910390fd5b50505050565b606060405180602001604052806000815250905090565b606060006001611e05846120f3565b01905060008167ffffffffffffffff811115611e2457611e236127fe565b5b6040519080825280601f01601f191660200182016040528015611e565781602001600182028036833780820191505090505b509050600082602001820190505b600115611eb9578080600190039150507f3031323334353637383961626364656600000000000000000000000000000000600a86061a8153600a8581611ead57611eac613cd1565b5b04945060008503611e64575b819350505050919050565b60008073ffffffffffffffffffffffffffffffffffffffff16611ee683611bbc565b73ffffffffffffffffffffffffffffffffffffffff1614159050919050565b50505050565b50505050565b611f1b8383612246565b611f286000848484611f6c565b611f67576040517f08c379a0000000000000000000000000000000000000000000000000000000008152600401611f5e90613cb1565b60405180910390fd5b505050565b6000611f8d8473ffffffffffffffffffffffffffffffffffffffff16612463565b156120e6578373ffffffffffffffffffffffffffffffffffffffff1663150b7a02611fb661176d565b8786866040518563ffffffff1660e01b8152600401611fd89493929190613d55565b6020604051808303816000875af192505050801561201457506040513d601f19601f820116820180604052508101906120119190613db6565b60015b612096573d8060008114612044576040519150601f19603f3d011682016040523d82523d6000602084013e612049565b606091505b50600081510361208e576040517f08c379a000000000000000000000000000000000000000000000000000000000815260040161208590613cb1565b60405180910390fd5b805181602001fd5b63150b7a0260e01b7bffffffffffffffffffffffffffffffffffffffffffffffffffffffff1916817bffffffffffffffffffffffffffffffffffffffffffffffffffffffff1916149150506120eb565b600190505b949350505050565b600080600090507a184f03e93ff9f4daa797ed6e38ed64bf6a1f0100000000000000008310612151577a184f03e93ff9f4daa797ed6e38ed64bf6a1f010000000000000000838161214757612146613cd1565b5b0492506040810190505b6d04ee2d6d415b85acef8100000000831061218e576d04ee2d6d415b85acef8100000000838161218457612183613cd1565b5b0492506020810190505b662386f26fc1000083106121bd57662386f26fc1000083816121b3576121b2613cd1565b5b0492506010810190505b6305f5e10083106121e6576305f5e10083816121dc576121db613cd1565b5b0492506008810190505b612710831061220b57612710838161220157612200613cd1565b5b0492506004810190505b6064831061222e576064838161222457612223613cd1565b5b0492506002810190505b600a831061223d576001810190505b80915050919050565b600073ffffffffffffffffffffffffffffffffffffffff168273ffffffffffffffffffffffffffffffffffffffff16036122b5576040517f08c379a00000000000000000000000000000000000000000000000000000000081526004016122ac90613e2f565b60405180910390fd5b6122be81611ec4565b156122fe576040517f08c379a00000000000000000000000000000000000000000000000000000000081526004016122f590613e9b565b60405180910390fd5b61230c600083836001611f05565b61231581611ec4565b15612355576040517f08c379a000000000000000000000000000000000000000000000000000000000815260040161234c90613e9b565b60405180910390fd5b6001600360008473ffffffffffffffffffffffffffffffffffffffff1673ffffffffffffffffffffffffffffffffffffffff16815260200190815260200160002060008282540192505081905550816002600083815260200190815260200160002060006101000a81548173ffffffffffffffffffffffffffffffffffffffff021916908373ffffffffffffffffffffffffffffffffffffffff160217905550808273ffffffffffffffffffffffffffffffffffffffff16600073ffffffffffffffffffffffffffffffffffffffff167fddf252ad1be2c89b69c2b068fc378daa952ba7f163c4a11628f55a4df523b3ef60405160405180910390a461245f600083836001611f0b565b5050565b6000808273ffffffffffffffffffffffffffffffffffffffff163b119050919050565b60405180610100016040528060008152602001606081526020016000815260200160008152602001600081526020016060815260200160608152602001606081525090565b6000604051905090565b600080fd5b600080fd5b60007fffffffff0000000000000000000000000000000000000000000000000000000082169050919050565b612514816124df565b811461251f57600080fd5b50565b6000813590506125318161250b565b92915050565b60006020828403121561254d5761254c6124d5565b5b600061255b84828501612522565b91505092915050565b60008115159050919050565b61257981612564565b82525050565b60006020820190506125946000830184612570565b92915050565b600081519050919050565b600082825260208201905092915050565b60005b838110156125d45780820151818401526020810190506125b9565b60008484015250505050565b6000601f19601f8301169050919050565b60006125fc8261259a565b61260681856125a5565b93506126168185602086016125b6565b61261f816125e0565b840191505092915050565b6000602082019050818103600083015261264481846125f1565b905092915050565b6000819050919050565b61265f8161264c565b811461266a57600080fd5b50565b60008135905061267c81612656565b92915050565b600060208284031215612698576126976124d5565b5b60006126a68482850161266d565b91505092915050565b600073ffffffffffffffffffffffffffffffffffffffff82169050919050565b60006126da826126af565b9050919050565b6126ea816126cf565b82525050565b600060208201905061270560008301846126e1565b92915050565b612714816126cf565b811461271f57600080fd5b50565b6000813590506127318161270b565b92915050565b6000806040838503121561274e5761274d6124d5565b5b600061275c85828601612722565b925050602061276d8582860161266d565b9150509250929050565b6127808161264c565b82525050565b600060208201905061279b6000830184612777565b92915050565b6000806000606084860312156127ba576127b96124d5565b5b60006127c886828701612722565b93505060206127d986828701612722565b92505060406127ea8682870161266d565b9150509250925092565b600080fd5b600080fd5b7f4e487b7100000000000000000000000000000000000000000000000000000000600052604160045260246000fd5b612836826125e0565b810181811067ffffffffffffffff82111715612855576128546127fe565b5b80604052505050565b60006128686124cb565b9050612874828261282d565b919050565b600067ffffffffffffffff821115612894576128936127fe565b5b61289d826125e0565b9050602081019050919050565b82818337600083830152505050565b60006128cc6128c784612879565b61285e565b9050828152602081018484840111156128e8576128e76127f9565b5b6128f38482856128aa565b509392505050565b600082601f8301126129105761290f6127f4565b5b81356129208482602086016128b9565b91505092915050565b60008060008060008060c08789031215612946576129456124d5565b5b600087013567ffffffffffffffff811115612964576129636124da565b5b61297089828a016128fb565b965050602061298189828a0161266d565b955050604061299289828a0161266d565b945050606087013567ffffffffffffffff8111156129b3576129b26124da565b5b6129bf89828a016128fb565b935050608087013567ffffffffffffffff8111156129e0576129df6124da565b5b6129ec89828a016128fb565b92505060a087013567ffffffffffffffff811115612a0d57612a0c6124da565b5b612a1989828a016128fb565b9150509295509295509295565b600060208284031215612a3c57612a3b6124d5565b5b6000612a4a84828501612722565b91505092915050565b612a5c81612564565b8114612a6757600080fd5b50565b600081359050612a7981612a53565b92915050565b60008060408385031215612a9657612a956124d5565b5b6000612aa485828601612722565b9250506020612ab585828601612a6a565b9150509250929050565b600067ffffffffffffffff821115612ada57612ad96127fe565b5b612ae3826125e0565b9050602081019050919050565b6000612b03612afe84612abf565b61285e565b905082815260208101848484011115612b1f57612b1e6127f9565b5b612b2a8482856128aa565b509392505050565b600082601f830112612b4757612b466127f4565b5b8135612b57848260208601612af0565b91505092915050565b60008060008060808587031215612b7a57612b796124d5565b5b6000612b8887828801612722565b9450506020612b9987828801612722565b9350506040612baa8782880161266d565b925050606085013567ffffffffffffffff811115612bcb57612bca6124da565b5b612bd787828801612b32565b91505092959194509250565b60008060008060808587031215612bfd57612bfc6124d5565b5b6000612c0b87828801612722565b9450506020612c1c8782880161266d565b9350506040612c2d87828801612722565b9250506060612c3e8782880161266d565b91505092959194509250565b600081519050919050565b600082825260208201905092915050565b6000819050602082019050919050565b612c7f8161264c565b82525050565b6000612c918383612c76565b60208301905092915050565b6000602082019050919050565b6000612cb582612c4a565b612cbf8185612c55565b9350612cca83612c66565b8060005b83811015612cfb578151612ce28882612c85565b9750612ced83612c9d565b925050600181019050612cce565b5085935050505092915050565b60006020820190508181036000830152612d228184612caa565b905092915050565b60008060408385031215612d4157612d406124d5565b5b6000612d4f85828601612722565b9250506020612d6085828601612722565b9150509250929050565b600082825260208201905092915050565b6000612d868261259a565b612d908185612d6a565b9350612da08185602086016125b6565b612da9816125e0565b840191505092915050565b600061010083016000830151612dcd6000860182612c76565b5060208301518482036020860152612de58282612d7b565b9150506040830151612dfa6040860182612c76565b506060830151612e0d6060860182612c76565b506080830151612e206080860182612c76565b5060a083015184820360a0860152612e388282612d7b565b91505060c083015184820360c0860152612e528282612d7b565b91505060e083015184820360e0860152612e6c8282612d7b565b9150508091505092915050565b60006020820190508181036000830152612e938184612db4565b905092915050565b7f4e487b7100000000000000000000000000000000000000000000000000000000600052602260045260246000fd5b60006002820490506001821680612ee257607f821691505b602082108103612ef557612ef4612e9b565b5b50919050565b7f4552433732313a20617070726f76616c20746f2063757272656e74206f776e6560008201527f7200000000000000000000000000000000000000000000000000000000000000602082015250565b6000612f576021836125a5565b9150612f6282612efb565b604082019050919050565b60006020820190508181036000830152612f8681612f4a565b9050919050565b7f4552433732313a20617070726f76652063616c6c6572206973206e6f7420746f60008201527f6b656e206f776e6572206f7220617070726f76656420666f7220616c6c000000602082015250565b6000612fe9603d836125a5565b9150612ff482612f8d565b604082019050919050565b6000602082019050818103600083015261301881612fdc565b9050919050565b7f4552433732313a2063616c6c6572206973206e6f7420746f6b656e206f776e6560008201527f72206f7220617070726f76656400000000000000000000000000000000000000602082015250565b600061307b602d836125a5565b91506130868261301f565b604082019050919050565b600060208201905081810360008301526130aa8161306e565b9050919050565b7f536f6c6f20656c2070726f706965746172696f20707565646520656a6563757460008201527f617220657374612066756e63696f6e0000000000000000000000000000000000602082015250565b600061310d602f836125a5565b9150613118826130b1565b604082019050919050565b6000602082019050818103600083015261313c81613100565b9050919050565b7f456c20636f73746f206465626520736572206d61796f7220717565206365726f600082015250565b60006131796020836125a5565b915061318482613143565b602082019050919050565b600060208201905081810360008301526131a88161316c565b9050919050565b7f456c206c696d69746520646520626f6c65746f73206465626520736572206d6160008201527f796f7220717565206365726f0000000000000000000000000000000000000000602082015250565b600061320b602c836125a5565b9150613216826131af565b604082019050919050565b6000602082019050818103600083015261323a816131fe565b9050919050565b7f4e487b7100000000000000000000000000000000000000000000000000000000600052601160045260246000fd5b600061327b8261264c565b91507fffffffffffffffffffffffffffffffffffffffffffffffffffffffffffffffff82036132ad576132ac613241565b5b600182019050919050565b60008190508160005260206000209050919050565b60006020601f8301049050919050565b600082821b905092915050565b60006008830261331a7fffffffffffffffffffffffffffffffffffffffffffffffffffffffffffffffff826132dd565b61332486836132dd565b95508019841693508086168417925050509392505050565b6000819050919050565b600061336161335c6133578461264c565b61333c565b61264c565b9050919050565b6000819050919050565b61337b83613346565b61338f61338782613368565b8484546132ea565b825550505050565b600090565b6133a4613397565b6133af818484613372565b505050565b5b818110156133d3576133c860008261339c565b6001810190506133b5565b5050565b601f821115613418576133e9816132b8565b6133f2846132cd565b81016020851015613401578190505b61341561340d856132cd565b8301826133b4565b50505b505050565b600082821c905092915050565b600061343b6000198460080261341d565b1980831691505092915050565b6000613454838361342a565b9150826002028217905092915050565b61346d8261259a565b67ffffffffffffffff811115613486576134856127fe565b5b6134908254612eca565b61349b8282856133d7565b600060209050601f8311600181146134ce57600084156134bc578287015190505b6134c68582613448565b86555061352e565b601f1984166134dc866132b8565b60005b82811015613504578489015182556001820191506020850194506020810190506134df565b86831015613521578489015161351d601f89168261342a565b8355505b6001600288020188555050505b505050505050565b7f4e6f2068617920666f6e646f7320706172612072657469726172000000000000600082015250565b600061356c601a836125a5565b915061357782613536565b602082019050919050565b6000602082019050818103600083015261359b8161355f565b9050919050565b600081905092915050565b50565b60006135bd6000836135a2565b91506135c8826135ad565b600082019050919050565b60006135de826135b0565b9150819050919050565b7f4c61206f7065726163696f6e2064652072657469726f2066616c6c6f00000000600082015250565b600061361e601c836125a5565b9150613629826135e8565b602082019050919050565b6000602082019050818103600083015261364d81613611565b9050919050565b7f4552433732313a20696e76616c696420746f6b656e2049440000000000000000600082015250565b600061368a6018836125a5565b915061369582613654565b602082019050919050565b600060208201905081810360008301526136b98161367d565b9050919050565b7f456c204944206465626520736572206d61796f7220717565206365726f000000600082015250565b60006136f6601d836125a5565b9150613701826136c0565b602082019050919050565b60006020820190508181036000830152613725816136e9565b9050919050565b7f456c204944206e6f20636f72726573706f6e64652061206e696e67756e20657660008201527f656e746f00000000000000000000000000000000000000000000000000000000602082015250565b60006137886024836125a5565b91506137938261372c565b604082019050919050565b600060208201905081810360008301526137b78161377b565b9050919050565b7f456c20457468657220656e766961646f206e6f20657320737566696369656e7460008201527f6500000000000000000000000000000000000000000000000000000000000000602082015250565b600061381a6021836125a5565b9150613825826137be565b604082019050919050565b600060208201905081810360008301526138498161380d565b9050919050565b7f4e6f2071756564616e20626f6c65746f7320646973706f6e69626c6573000000600082015250565b6000613886601d836125a5565b915061389182613850565b602082019050919050565b600060208201905081810360008301526138b581613879565b9050919050565b60006138c78261264c565b9150600082036138da576138d9613241565b5b600182039050919050565b7f4552433732313a2061646472657373207a65726f206973206e6f74206120766160008201527f6c6964206f776e65720000000000000000000000000000000000000000000000602082015250565b60006139416029836125a5565b915061394c826138e5565b604082019050919050565b6000602082019050818103600083015261397081613934565b9050919050565b600081905092915050565b600061398d8261259a565b6139978185613977565b93506139a78185602086016125b6565b80840191505092915050565b60006139bf8285613982565b91506139cb8284613982565b91508190509392505050565b7f496420646520626f6c65746f20696e76616c69646f7300000000000000000000600082015250565b6000613a0d6016836125a5565b9150613a18826139d7565b602082019050919050565b60006020820190508181036000830152613a3c81613a00565b9050919050565b7f50726f706965746172696f7320696e76616c69646f7300000000000000000000600082015250565b6000613a796016836125a5565b9150613a8482613a43565b602082019050919050565b60006020820190508181036000830152613aa881613a6c565b9050919050565b7f4552433732313a207472616e736665722066726f6d20696e636f72726563742060008201527f6f776e6572000000000000000000000000000000000000000000000000000000602082015250565b6000613b0b6025836125a5565b9150613b1682613aaf565b604082019050919050565b60006020820190508181036000830152613b3a81613afe565b9050919050565b7f4552433732313a207472616e7366657220746f20746865207a65726f2061646460008201527f7265737300000000000000000000000000000000000000000000000000000000602082015250565b6000613b9d6024836125a5565b9150613ba882613b41565b604082019050919050565b60006020820190508181036000830152613bcc81613b90565b9050919050565b7f4552433732313a20617070726f766520746f2063616c6c657200000000000000600082015250565b6000613c096019836125a5565b9150613c1482613bd3565b602082019050919050565b60006020820190508181036000830152613c3881613bfc565b9050919050565b7f4552433732313a207472616e7366657220746f206e6f6e20455243373231526560008201527f63656976657220696d706c656d656e7465720000000000000000000000000000602082015250565b6000613c9b6032836125a5565b9150613ca682613c3f565b604082019050919050565b60006020820190508181036000830152613cca81613c8e565b9050919050565b7f4e487b7100000000000000000000000000000000000000000000000000000000600052601260045260246000fd5b600081519050919050565b600082825260208201905092915050565b6000613d2782613d00565b613d318185613d0b565b9350613d418185602086016125b6565b613d4a816125e0565b840191505092915050565b6000608082019050613d6a60008301876126e1565b613d7760208301866126e1565b613d846040830185612777565b8181036060830152613d968184613d1c565b905095945050505050565b600081519050613db08161250b565b92915050565b600060208284031215613dcc57613dcb6124d5565b5b6000613dda84828501613da1565b91505092915050565b7f4552433732313a206d696e7420746f20746865207a65726f2061646472657373600082015250565b6000613e196020836125a5565b9150613e2482613de3565b602082019050919050565b60006020820190508181036000830152613e4881613e0c565b9050919050565b7f4552433732313a20746f6b656e20616c7265616479206d696e74656400000000600082015250565b6000613e85601c836125a5565b9150613e9082613e4f565b602082019050919050565b60006020820190508181036000830152613eb481613e78565b905091905056fea2646970667358221220285647cc01b7ccb90ce6101a229c134998bade675a13097a6aa8c4dc36937e8764736f6c63430008110033",
  "linkReferences": {},
  "deployedLinkReferences": {}
}